{"bytecode":"608060405234801561001057600080fd5b50600280546001600160a01b03191633179055610c1d806100326000396000f3fe608060405234801561001057600080fd5b50600436106100a95760003560e01c80638cd2e0c7116100715780638cd2e0c714610182578063946ccfc0146101955780639fed030014610204578063ad5c464814610252578063f2df757b1461026d578063f61556c81461029657600080fd5b80630b1eedb8146100ae578063150b7a02146100c35780631e315fd6146100ff5780633a1657b414610112578063617a19c01461016f575b600080fd5b6100c16100bc3660046108f6565b6102a9565b005b6100e16100d1366004610957565b630a85bd0160e11b949350505050565b6040516001600160e01b031990911681526020015b60405180910390f35b6100c161010d366004610a33565b610311565b610157610120366004610a33565b6001600160a01b03928316600090815260016020908152604080832094861683529381528382209282529190915220600201541690565b6040516001600160a01b0390911681526020016100f6565b6100c161017d366004610a6f565b6103d5565b6100c1610190366004610ac4565b610579565b6101df6101a3366004610a33565b60016020818152600094855260408086208252938552838520905290835291208054918101546002909101546001600160a01b03918216911683565b604080519384526001600160a01b0392831660208501529116908201526060016100f6565b610244610212366004610a33565b6001600160a01b0392831660009081526001602090815260408083209490951682529283528381209181529152205490565b6040519081526020016100f6565b61015773c778417e063141139fce010982780140aa0cd5ab81565b61024461027b366004610af7565b6001600160a01b031660009081526020819052604090205490565b6100c16102a4366004610b19565b610874565b604051632142170760e11b81526001600160a01b038316906342842e0e906102d990879087908690600401610b43565b600060405180830381600087803b1580156102f357600080fd5b505af1158015610307573d6000803e3d6000fd5b5050505050505050565b6001600160a01b03838116600090815260016020908152604080832084871680855290835281842086855290925291829020600201549151632142170760e11b815290926342842e0e9261037092309291909116908690600401610b43565b600060405180830381600087803b15801561038a57600080fd5b505af115801561039e573d6000803e3d6000fd5b505050506001600160a01b039283166000908152600160209081526040808320949095168252928352838120918152915290812055565b6001600160a01b03858116600090815260016020908152604080832087851684528252808320868452909152902060020154811690851614610449576001600160a01b0380861660009081526001602090815260408083209387168352928152828220858352905220541561044957600080fd5b604051632142170760e11b81526001600160a01b038416906342842e0e9061047990889030908790600401610b43565b600060405180830381600087803b15801561049357600080fd5b505af11580156104a7573d6000803e3d6000fd5b505050506001600160a01b0385811660009081526001602090815260408083209387168352928152828220858352905290812080548392906104ea908490610b7d565b90915550506001600160a01b03851660009081526020819052604081208054839290610517908490610b7d565b9091555050506001600160a01b03938416600081815260016020818152604080842096891684529581528583209483529390935292909220600281018054949095166001600160a01b0319948516179094559290920180549091169091179055565b6040516370a0823160e01b8152336004820152819073c778417e063141139fce010982780140aa0cd5ab906370a0823190602401602060405180830381865afa1580156105ca573d6000803e3d6000fd5b505050506040513d601f19601f820116820180604052508101906105ee9190610b95565b10156106415760405162461bcd60e51b815260206004820152601860248201527f6e6f7420656e6f756768205745544820746f207265706179000000000000000060448201526064015b60405180910390fd5b3360009081526001602090815260408083206001600160a01b038716845282528083208584529091529020548111156106c65760405162461bcd60e51b815260206004820152602160248201527f43616e6e6f7420706179206261636b206d6f7265207468616e20796f75206f776044820152606560f81b6064820152608401610638565b3360008181526001602090815260408083206001600160a01b038881168552908352818420878552909252918290206002015491516323b872dd60e01b815273c778417e063141139fce010982780140aa0cd5ab936323b872dd936107349391929116908690600401610b43565b6020604051808303816000875af1158015610753573d6000803e3d6000fd5b505050506040513d601f19601f820116820180604052508101906107779190610bae565b503360009081526001602090815260408083206001600160a01b03871684528252808320858452909152812080548392906107b3908490610bd0565b909155505033600090815260208190526040812080548392906107d7908490610bd0565b90915550503360009081526001602090815260408083206001600160a01b0387168452825280832085845290915290205461086f57604051632142170760e11b81526001600160a01b038416906342842e0e9061083c90309033908790600401610b43565b600060405180830381600087803b15801561085657600080fd5b505af115801561086a573d6000803e3d6000fd5b505050505b505050565b604051632142170760e11b81526001600160a01b038316906342842e0e906108a490309033908690600401610b43565b600060405180830381600087803b1580156108be57600080fd5b505af11580156108d2573d6000803e3d6000fd5b505050505050565b80356001600160a01b03811681146108f157600080fd5b919050565b6000806000806080858703121561090c57600080fd5b610915856108da565b9350610923602086016108da565b9250610931604086016108da565b9396929550929360600135925050565b634e487b7160e01b600052604160045260246000fd5b6000806000806080858703121561096d57600080fd5b610976856108da565b9350610984602086016108da565b925060408501359150606085013567ffffffffffffffff808211156109a857600080fd5b818701915087601f8301126109bc57600080fd5b8135818111156109ce576109ce610941565b604051601f8201601f19908116603f011681019083821181831017156109f6576109f6610941565b816040528281528a6020848701011115610a0f57600080fd5b82602086016020830137600060208483010152809550505050505092959194509250565b600080600060608486031215610a4857600080fd5b610a51846108da565b9250610a5f602085016108da565b9150604084013590509250925092565b600080600080600060a08688031215610a8757600080fd5b610a90866108da565b9450610a9e602087016108da565b9350610aac604087016108da565b94979396509394606081013594506080013592915050565b600080600060608486031215610ad957600080fd5b610ae2846108da565b95602085013595506040909401359392505050565b600060208284031215610b0957600080fd5b610b12826108da565b9392505050565b60008060408385031215610b2c57600080fd5b610b35836108da565b946020939093013593505050565b6001600160a01b039384168152919092166020820152604081019190915260600190565b634e487b7160e01b600052601160045260246000fd5b60008219821115610b9057610b90610b67565b500190565b600060208284031215610ba757600080fd5b5051919050565b600060208284031215610bc057600080fd5b81518015158114610b1257600080fd5b600082821015610be257610be2610b67565b50039056fea2646970667358221220256838420d8887735673793f129968ef07193ad9e72839be0dcf6f07c209374f64736f6c634300080b0033","bytecodeSha1":"2c794a35e5d748a45a96d51099c87290f73f5f3f","type":"contract","abi":[{"inputs":[],"stateMutability":"nonpayable","type":"constructor","name":"constructor"},{"inputs":[],"name":"WETH","outputs":[{"internalType":"address","name":"","type":"address"}],"stateMutability":"view","type":"function"},{"inputs":[{"internalType":"address","name":"_buyer","type":"address"},{"internalType":"address","name":"_seller","type":"address"},{"internalType":"address","name":"_collection","type":"address"},{"internalType":"uint256","name":"_tokenID","type":"uint256"},{"internalType":"uint256","name":"_itemValue","type":"uint256"}],"name":"collateralizedPurchase","outputs":[],"stateMutability":"nonpayable","type":"function"},{"inputs":[{"internalType":"address","name":"nft","type":"address"},{"internalType":"uint256","name":"_tokenID","type":"uint256"}],"name":"emergencyExit","outputs":[],"stateMutability":"nonpayable","type":"function"},{"inputs":[{"internalType":"address","name":"_buyer","type":"address"},{"internalType":"address","name":"_seller","type":"address"},{"internalType":"address","name":"_collection","type":"address"},{"internalType":"uint256","name":"_tokenID","type":"uint256"}],"name":"exchangeNFT","outputs":[],"stateMutability":"nonpayable","type":"function"},{"inputs":[{"internalType":"address","name":"_buyer","type":"address"},{"internalType":"address","name":"_collection","type":"address"},{"internalType":"uint256","name":"_tokenID","type":"uint256"}],"name":"handleDefault","outputs":[],"stateMutability":"nonpayable","type":"function"},{"inputs":[{"internalType":"address","name":"","type":"address"},{"internalType":"address","name":"","type":"address"},{"internalType":"uint256","name":"","type":"uint256"}],"name":"loanTracker","outputs":[{"internalType":"uint256","name":"amountOwed","type":"uint256"},{"internalType":"address","name":"buyer","type":"address"},{"internalType":"address","name":"seller","type":"address"}],"stateMutability":"view","type":"function"},{"inputs":[{"internalType":"address","name":"","type":"address"},{"internalType":"address","name":"","type":"address"},{"internalType":"uint256","name":"","type":"uint256"},{"internalType":"bytes","name":"","type":"bytes"}],"name":"onERC721Received","outputs":[{"internalType":"bytes4","name":"","type":"bytes4"}],"stateMutability":"nonpayable","type":"function"},{"inputs":[{"internalType":"address","name":"_collection","type":"address"},{"internalType":"uint256","name":"_tokenID","type":"uint256"},{"internalType":"uint256","name":"_amount","type":"uint256"}],"name":"repay","outputs":[],"stateMutability":"nonpayable","type":"function"},{"inputs":[{"internalType":"address","name":"_buyer","type":"address"},{"internalType":"address","name":"_collection","type":"address"},{"internalType":"uint256","name":"_tokenID","type":"uint256"}],"name":"sellerCollateralNFT","outputs":[{"internalType":"address","name":"","type":"address"}],"stateMutability":"view","type":"function"},{"inputs":[{"internalType":"address","name":"_buyer","type":"address"}],"name":"totalValueBorrowed","outputs":[{"internalType":"uint256","name":"","type":"uint256"}],"stateMutability":"view","type":"function"},{"inputs":[{"internalType":"address","name":"_buyer","type":"address"},{"internalType":"address","name":"_collection","type":"address"},{"internalType":"uint256","name":"_tokenID","type":"uint256"}],"name":"valueBorrowedOneNFT","outputs":[{"internalType":"uint256","name":"","type":"uint256"}],"stateMutability":"view","type":"function"}],"compiler":{"version":"0.8.11+commit.d7f03943","evm_version":"istanbul","optimizer":{"enabled":true,"runs":200}},"contractName":"Barter","language":"Solidity","natspec":{"methods":{"collateralizedPurchase(address,address,address,uint256,uint256)":{"notice":"function transfers ownership from buyer to this contract to be held as collateralbuyer will automaticall receive thier NFT back once they repay the item value","details":"the calling contract/function must approve the transfer to this contract address"},"exchangeNFT(address,address,address,uint256)":{"notice":"function transfers ownership from buyer to seller","details":"the calling contract/function must approve the transfer to the seller's address"},"repay(address,uint256,uint256)":{"notice":"buyer pays back what they owe in WETH only","details":"the calling contract/function must approve the transfer of ERC20 to the seller address"},"totalValueBorrowed(address)":{"notice":"returns the total eth quantity owed by a user"},"handleDefault(address,address,uint256)":{"notice":"upon defualt, the store gets th NFT, and the user no longer owes money."},"sellerCollateralNFT(address,address,uint256)":{"notice":"returns address of seller who has an NFT as collateral"},"valueBorrowedOneNFT(address,address,uint256)":{"notice":"returns value owed on 1 NFT used as collateral"}},"kind":"dev","version":1},"opcodes":"PUSH1 0x80 PUSH1 0x40 MSTORE CALLVALUE DUP1 ISZERO PUSH2 0x10 JUMPI PUSH1 0x0 DUP1 REVERT JUMPDEST POP PUSH1 0x4 CALLDATASIZE LT PUSH2 0xA9 JUMPI PUSH1 0x0 CALLDATALOAD PUSH1 0xE0 SHR DUP1 PUSH4 0x8CD2E0C7 GT PUSH2 0x71 JUMPI DUP1 PUSH4 0x8CD2E0C7 EQ PUSH2 0x182 JUMPI DUP1 PUSH4 0x946CCFC0 EQ PUSH2 0x195 JUMPI DUP1 PUSH4 0x9FED0300 EQ PUSH2 0x204 JUMPI DUP1 PUSH4 0xAD5C4648 EQ PUSH2 0x252 JUMPI DUP1 PUSH4 0xF2DF757B EQ PUSH2 0x26D JUMPI DUP1 PUSH4 0xF61556C8 EQ PUSH2 0x296 JUMPI PUSH1 0x0 DUP1 REVERT JUMPDEST DUP1 PUSH4 0xB1EEDB8 EQ PUSH2 0xAE JUMPI DUP1 PUSH4 0x150B7A02 EQ PUSH2 0xC3 JUMPI DUP1 PUSH4 0x1E315FD6 EQ PUSH2 0xFF JUMPI DUP1 PUSH4 0x3A1657B4 EQ PUSH2 0x112 JUMPI DUP1 PUSH4 0x617A19C0 EQ PUSH2 0x16F JUMPI JUMPDEST PUSH1 0x0 DUP1 REVERT JUMPDEST PUSH2 0xC1 PUSH2 0xBC CALLDATASIZE PUSH1 0x4 PUSH2 0x8F6 JUMP JUMPDEST PUSH2 0x2A9 JUMP JUMPDEST STOP JUMPDEST PUSH2 0xE1 PUSH2 0xD1 CALLDATASIZE PUSH1 0x4 PUSH2 0x957 JUMP JUMPDEST PUSH4 0xA85BD01 PUSH1 0xE1 SHL SWAP5 SWAP4 POP POP POP POP JUMP JUMPDEST PUSH1 0x40 MLOAD PUSH1 0x1 PUSH1 0x1 PUSH1 0xE0 SHL SUB NOT SWAP1 SWAP2 AND DUP2 MSTORE PUSH1 0x20 ADD JUMPDEST PUSH1 0x40 MLOAD DUP1 SWAP2 SUB SWAP1 RETURN JUMPDEST PUSH2 0xC1 PUSH2 0x10D CALLDATASIZE PUSH1 0x4 PUSH2 0xA33 JUMP JUMPDEST PUSH2 0x311 JUMP JUMPDEST PUSH2 0x157 PUSH2 0x120 CALLDATASIZE PUSH1 0x4 PUSH2 0xA33 JUMP JUMPDEST PUSH1 0x1 PUSH1 0x1 PUSH1 0xA0 SHL SUB SWAP3 DUP4 AND PUSH1 0x0 SWAP1 DUP2 MSTORE PUSH1 0x1 PUSH1 0x20 SWAP1 DUP2 MSTORE PUSH1 0x40 DUP1 DUP4 KECCAK256 SWAP5 DUP7 AND DUP4 MSTORE SWAP4 DUP2 MSTORE DUP4 DUP3 KECCAK256 SWAP3 DUP3 MSTORE SWAP2 SWAP1 SWAP2 MSTORE KECCAK256 PUSH1 0x2 ADD SLOAD AND SWAP1 JUMP JUMPDEST PUSH1 0x40 MLOAD PUSH1 0x1 PUSH1 0x1 PUSH1 0xA0 SHL SUB SWAP1 SWAP2 AND DUP2 MSTORE PUSH1 0x20 ADD PUSH2 0xF6 JUMP JUMPDEST PUSH2 0xC1 PUSH2 0x17D CALLDATASIZE PUSH1 0x4 PUSH2 0xA6F JUMP JUMPDEST PUSH2 0x3D5 JUMP JUMPDEST PUSH2 0xC1 PUSH2 0x190 CALLDATASIZE PUSH1 0x4 PUSH2 0xAC4 JUMP JUMPDEST PUSH2 0x579 JUMP JUMPDEST PUSH2 0x1DF PUSH2 0x1A3 CALLDATASIZE PUSH1 0x4 PUSH2 0xA33 JUMP JUMPDEST PUSH1 0x1 PUSH1 0x20 DUP2 DUP2 MSTORE PUSH1 0x0 SWAP5 DUP6 MSTORE PUSH1 0x40 DUP1 DUP7 KECCAK256 DUP3 MSTORE SWAP4 DUP6 MSTORE DUP4 DUP6 KECCAK256 SWAP1 MSTORE SWAP1 DUP4 MSTORE SWAP2 KECCAK256 DUP1 SLOAD SWAP2 DUP2 ADD SLOAD PUSH1 0x2 SWAP1 SWAP2 ADD SLOAD PUSH1 0x1 PUSH1 0x1 PUSH1 0xA0 SHL SUB SWAP2 DUP3 AND SWAP2 AND DUP4 JUMP JUMPDEST PUSH1 0x40 DUP1 MLOAD SWAP4 DUP5 MSTORE PUSH1 0x1 PUSH1 0x1 PUSH1 0xA0 SHL SUB SWAP3 DUP4 AND PUSH1 0x20 DUP6 ADD MSTORE SWAP2 AND SWAP1 DUP3 ADD MSTORE PUSH1 0x60 ADD PUSH2 0xF6 JUMP JUMPDEST PUSH2 0x244 PUSH2 0x212 CALLDATASIZE PUSH1 0x4 PUSH2 0xA33 JUMP JUMPDEST PUSH1 0x1 PUSH1 0x1 PUSH1 0xA0 SHL SUB SWAP3 DUP4 AND PUSH1 0x0 SWAP1 DUP2 MSTORE PUSH1 0x1 PUSH1 0x20 SWAP1 DUP2 MSTORE PUSH1 0x40 DUP1 DUP4 KECCAK256 SWAP5 SWAP1 SWAP6 AND DUP3 MSTORE SWAP3 DUP4 MSTORE DUP4 DUP2 KECCAK256 SWAP2 DUP2 MSTORE SWAP2 MSTORE KECCAK256 SLOAD SWAP1 JUMP JUMPDEST PUSH1 0x40 MLOAD SWAP1 DUP2 MSTORE PUSH1 0x20 ADD PUSH2 0xF6 JUMP JUMPDEST PUSH2 0x157 PUSH20 0xC778417E063141139FCE010982780140AA0CD5AB DUP2 JUMP JUMPDEST PUSH2 0x244 PUSH2 0x27B CALLDATASIZE PUSH1 0x4 PUSH2 0xAF7 JUMP JUMPDEST PUSH1 0x1 PUSH1 0x1 PUSH1 0xA0 SHL SUB AND PUSH1 0x0 SWAP1 DUP2 MSTORE PUSH1 0x20 DUP2 SWAP1 MSTORE PUSH1 0x40 SWAP1 KECCAK256 SLOAD SWAP1 JUMP JUMPDEST PUSH2 0xC1 PUSH2 0x2A4 CALLDATASIZE PUSH1 0x4 PUSH2 0xB19 JUMP JUMPDEST PUSH2 0x874 JUMP JUMPDEST PUSH1 0x40 MLOAD PUSH4 0x21421707 PUSH1 0xE1 SHL DUP2 MSTORE PUSH1 0x1 PUSH1 0x1 PUSH1 0xA0 SHL SUB DUP4 AND SWAP1 PUSH4 0x42842E0E SWAP1 PUSH2 0x2D9 SWAP1 DUP8 SWAP1 DUP8 SWAP1 DUP7 SWAP1 PUSH1 0x4 ADD PUSH2 0xB43 JUMP JUMPDEST PUSH1 0x0 PUSH1 0x40 MLOAD DUP1 DUP4 SUB DUP2 PUSH1 0x0 DUP8 DUP1 EXTCODESIZE ISZERO DUP1 ISZERO PUSH2 0x2F3 JUMPI PUSH1 0x0 DUP1 REVERT JUMPDEST POP GAS CALL ISZERO DUP1 ISZERO PUSH2 0x307 JUMPI RETURNDATASIZE PUSH1 0x0 DUP1 RETURNDATACOPY RETURNDATASIZE PUSH1 0x0 REVERT JUMPDEST POP POP POP POP POP POP POP POP JUMP JUMPDEST PUSH1 0x1 PUSH1 0x1 PUSH1 0xA0 SHL SUB DUP4 DUP2 AND PUSH1 0x0 SWAP1 DUP2 MSTORE PUSH1 0x1 PUSH1 0x20 SWAP1 DUP2 MSTORE PUSH1 0x40 DUP1 DUP4 KECCAK256 DUP5 DUP8 AND DUP1 DUP6 MSTORE SWAP1 DUP4 MSTORE DUP2 DUP5 KECCAK256 DUP7 DUP6 MSTORE SWAP1 SWAP3 MSTORE SWAP2 DUP3 SWAP1 KECCAK256 PUSH1 0x2 ADD SLOAD SWAP2 MLOAD PUSH4 0x21421707 PUSH1 0xE1 SHL DUP2 MSTORE SWAP1 SWAP3 PUSH4 0x42842E0E SWAP3 PUSH2 0x370 SWAP3 ADDRESS SWAP3 SWAP2 SWAP1 SWAP2 AND SWAP1 DUP7 SWAP1 PUSH1 0x4 ADD PUSH2 0xB43 JUMP JUMPDEST PUSH1 0x0 PUSH1 0x40 MLOAD DUP1 DUP4 SUB DUP2 PUSH1 0x0 DUP8 DUP1 EXTCODESIZE ISZERO DUP1 ISZERO PUSH2 0x38A JUMPI PUSH1 0x0 DUP1 REVERT JUMPDEST POP GAS CALL ISZERO DUP1 ISZERO PUSH2 0x39E JUMPI RETURNDATASIZE PUSH1 0x0 DUP1 RETURNDATACOPY RETURNDATASIZE PUSH1 0x0 REVERT JUMPDEST POP POP POP POP PUSH1 0x1 PUSH1 0x1 PUSH1 0xA0 SHL SUB SWAP3 DUP4 AND PUSH1 0x0 SWAP1 DUP2 MSTORE PUSH1 0x1 PUSH1 0x20 SWAP1 DUP2 MSTORE PUSH1 0x40 DUP1 DUP4 KECCAK256 SWAP5 SWAP1 SWAP6 AND DUP3 MSTORE SWAP3 DUP4 MSTORE DUP4 DUP2 KECCAK256 SWAP2 DUP2 MSTORE SWAP2 MSTORE SWAP1 DUP2 KECCAK256 SSTORE JUMP JUMPDEST PUSH1 0x1 PUSH1 0x1 PUSH1 0xA0 SHL SUB DUP6 DUP2 AND PUSH1 0x0 SWAP1 DUP2 MSTORE PUSH1 0x1 PUSH1 0x20 SWAP1 DUP2 MSTORE PUSH1 0x40 DUP1 DUP4 KECCAK256 DUP8 DUP6 AND DUP5 MSTORE DUP3 MSTORE DUP1 DUP4 KECCAK256 DUP7 DUP5 MSTORE SWAP1 SWAP2 MSTORE SWAP1 KECCAK256 PUSH1 0x2 ADD SLOAD DUP2 AND SWAP1 DUP6 AND EQ PUSH2 0x449 JUMPI PUSH1 0x1 PUSH1 0x1 PUSH1 0xA0 SHL SUB DUP1 DUP7 AND PUSH1 0x0 SWAP1 DUP2 MSTORE PUSH1 0x1 PUSH1 0x20 SWAP1 DUP2 MSTORE PUSH1 0x40 DUP1 DUP4 KECCAK256 SWAP4 DUP8 AND DUP4 MSTORE SWAP3 DUP2 MSTORE DUP3 DUP3 KECCAK256 DUP6 DUP4 MSTORE SWAP1 MSTORE KECCAK256 SLOAD ISZERO PUSH2 0x449 JUMPI PUSH1 0x0 DUP1 REVERT JUMPDEST PUSH1 0x40 MLOAD PUSH4 0x21421707 PUSH1 0xE1 SHL DUP2 MSTORE PUSH1 0x1 PUSH1 0x1 PUSH1 0xA0 SHL SUB DUP5 AND SWAP1 PUSH4 0x42842E0E SWAP1 PUSH2 0x479 SWAP1 DUP9 SWAP1 ADDRESS SWAP1 DUP8 SWAP1 PUSH1 0x4 ADD PUSH2 0xB43 JUMP JUMPDEST PUSH1 0x0 PUSH1 0x40 MLOAD DUP1 DUP4 SUB DUP2 PUSH1 0x0 DUP8 DUP1 EXTCODESIZE ISZERO DUP1 ISZERO PUSH2 0x493 JUMPI PUSH1 0x0 DUP1 REVERT JUMPDEST POP GAS CALL ISZERO DUP1 ISZERO PUSH2 0x4A7 JUMPI RETURNDATASIZE PUSH1 0x0 DUP1 RETURNDATACOPY RETURNDATASIZE PUSH1 0x0 REVERT JUMPDEST POP POP POP POP PUSH1 0x1 PUSH1 0x1 PUSH1 0xA0 SHL SUB DUP6 DUP2 AND PUSH1 0x0 SWAP1 DUP2 MSTORE PUSH1 0x1 PUSH1 0x20 SWAP1 DUP2 MSTORE PUSH1 0x40 DUP1 DUP4 KECCAK256 SWAP4 DUP8 AND DUP4 MSTORE SWAP3 DUP2 MSTORE DUP3 DUP3 KECCAK256 DUP6 DUP4 MSTORE SWAP1 MSTORE SWAP1 DUP2 KECCAK256 DUP1 SLOAD DUP4 SWAP3 SWAP1 PUSH2 0x4EA SWAP1 DUP5 SWAP1 PUSH2 0xB7D JUMP JUMPDEST SWAP1 SWAP2 SSTORE POP POP PUSH1 0x1 PUSH1 0x1 PUSH1 0xA0 SHL SUB DUP6 AND PUSH1 0x0 SWAP1 DUP2 MSTORE PUSH1 0x20 DUP2 SWAP1 MSTORE PUSH1 0x40 DUP2 KECCAK256 DUP1 SLOAD DUP4 SWAP3 SWAP1 PUSH2 0x517 SWAP1 DUP5 SWAP1 PUSH2 0xB7D JUMP JUMPDEST SWAP1 SWAP2 SSTORE POP POP POP PUSH1 0x1 PUSH1 0x1 PUSH1 0xA0 SHL SUB SWAP4 DUP5 AND PUSH1 0x0 DUP2 DUP2 MSTORE PUSH1 0x1 PUSH1 0x20 DUP2 DUP2 MSTORE PUSH1 0x40 DUP1 DUP5 KECCAK256 SWAP7 DUP10 AND DUP5 MSTORE SWAP6 DUP2 MSTORE DUP6 DUP4 KECCAK256 SWAP5 DUP4 MSTORE SWAP4 SWAP1 SWAP4 MSTORE SWAP3 SWAP1 SWAP3 KECCAK256 PUSH1 0x2 DUP2 ADD DUP1 SLOAD SWAP5 SWAP1 SWAP6 AND PUSH1 0x1 PUSH1 0x1 PUSH1 0xA0 SHL SUB NOT SWAP5 DUP6 AND OR SWAP1 SWAP5 SSTORE SWAP3 SWAP1 SWAP3 ADD DUP1 SLOAD SWAP1 SWAP2 AND SWAP1 SWAP2 OR SWAP1 SSTORE JUMP JUMPDEST PUSH1 0x40 MLOAD PUSH4 0x70A08231 PUSH1 0xE0 SHL DUP2 MSTORE CALLER PUSH1 0x4 DUP3 ADD MSTORE DUP2 SWAP1 PUSH20 0xC778417E063141139FCE010982780140AA0CD5AB SWAP1 PUSH4 0x70A08231 SWAP1 PUSH1 0x24 ADD PUSH1 0x20 PUSH1 0x40 MLOAD DUP1 DUP4 SUB DUP2 DUP7 GAS STATICCALL ISZERO DUP1 ISZERO PUSH2 0x5CA JUMPI RETURNDATASIZE PUSH1 0x0 DUP1 RETURNDATACOPY RETURNDATASIZE PUSH1 0x0 REVERT JUMPDEST POP POP POP POP PUSH1 0x40 MLOAD RETURNDATASIZE PUSH1 0x1F NOT PUSH1 0x1F DUP3 ADD AND DUP3 ADD DUP1 PUSH1 0x40 MSTORE POP DUP2 ADD SWAP1 PUSH2 0x5EE SWAP2 SWAP1 PUSH2 0xB95 JUMP JUMPDEST LT ISZERO PUSH2 0x641 JUMPI PUSH1 0x40 MLOAD PUSH3 0x461BCD PUSH1 0xE5 SHL DUP2 MSTORE PUSH1 0x20 PUSH1 0x4 DUP3 ADD MSTORE PUSH1 0x18 PUSH1 0x24 DUP3 ADD MSTORE PUSH32 0x6E6F7420656E6F756768205745544820746F2072657061790000000000000000 PUSH1 0x44 DUP3 ADD MSTORE PUSH1 0x64 ADD JUMPDEST PUSH1 0x40 MLOAD DUP1 SWAP2 SUB SWAP1 REVERT JUMPDEST CALLER PUSH1 0x0 SWAP1 DUP2 MSTORE PUSH1 0x1 PUSH1 0x20 SWAP1 DUP2 MSTORE PUSH1 0x40 DUP1 DUP4 KECCAK256 PUSH1 0x1 PUSH1 0x1 PUSH1 0xA0 SHL SUB DUP8 AND DUP5 MSTORE DUP3 MSTORE DUP1 DUP4 KECCAK256 DUP6 DUP5 MSTORE SWAP1 SWAP2 MSTORE SWAP1 KECCAK256 SLOAD DUP2 GT ISZERO PUSH2 0x6C6 JUMPI PUSH1 0x40 MLOAD PUSH3 0x461BCD PUSH1 0xE5 SHL DUP2 MSTORE PUSH1 0x20 PUSH1 0x4 DUP3 ADD MSTORE PUSH1 0x21 PUSH1 0x24 DUP3 ADD MSTORE PUSH32 0x43616E6E6F7420706179206261636B206D6F7265207468616E20796F75206F77 PUSH1 0x44 DUP3 ADD MSTORE PUSH1 0x65 PUSH1 0xF8 SHL PUSH1 0x64 DUP3 ADD MSTORE PUSH1 0x84 ADD PUSH2 0x638 JUMP JUMPDEST CALLER PUSH1 0x0 DUP2 DUP2 MSTORE PUSH1 0x1 PUSH1 0x20 SWAP1 DUP2 MSTORE PUSH1 0x40 DUP1 DUP4 KECCAK256 PUSH1 0x1 PUSH1 0x1 PUSH1 0xA0 SHL SUB DUP9 DUP2 AND DUP6 MSTORE SWAP1 DUP4 MSTORE DUP2 DUP5 KECCAK256 DUP8 DUP6 MSTORE SWAP1 SWAP3 MSTORE SWAP2 DUP3 SWAP1 KECCAK256 PUSH1 0x2 ADD SLOAD SWAP2 MLOAD PUSH4 0x23B872DD PUSH1 0xE0 SHL DUP2 MSTORE PUSH20 0xC778417E063141139FCE010982780140AA0CD5AB SWAP4 PUSH4 0x23B872DD SWAP4 PUSH2 0x734 SWAP4 SWAP2 SWAP3 SWAP2 AND SWAP1 DUP7 SWAP1 PUSH1 0x4 ADD PUSH2 0xB43 JUMP JUMPDEST PUSH1 0x20 PUSH1 0x40 MLOAD DUP1 DUP4 SUB DUP2 PUSH1 0x0 DUP8 GAS CALL ISZERO DUP1 ISZERO PUSH2 0x753 JUMPI RETURNDATASIZE PUSH1 0x0 DUP1 RETURNDATACOPY RETURNDATASIZE PUSH1 0x0 REVERT JUMPDEST POP POP POP POP PUSH1 0x40 MLOAD RETURNDATASIZE PUSH1 0x1F NOT PUSH1 0x1F DUP3 ADD AND DUP3 ADD DUP1 PUSH1 0x40 MSTORE POP DUP2 ADD SWAP1 PUSH2 0x777 SWAP2 SWAP1 PUSH2 0xBAE JUMP JUMPDEST POP CALLER PUSH1 0x0 SWAP1 DUP2 MSTORE PUSH1 0x1 PUSH1 0x20 SWAP1 DUP2 MSTORE PUSH1 0x40 DUP1 DUP4 KECCAK256 PUSH1 0x1 PUSH1 0x1 PUSH1 0xA0 SHL SUB DUP8 AND DUP5 MSTORE DUP3 MSTORE DUP1 DUP4 KECCAK256 DUP6 DUP5 MSTORE SWAP1 SWAP2 MSTORE DUP2 KECCAK256 DUP1 SLOAD DUP4 SWAP3 SWAP1 PUSH2 0x7B3 SWAP1 DUP5 SWAP1 PUSH2 0xBD0 JUMP JUMPDEST SWAP1 SWAP2 SSTORE POP POP CALLER PUSH1 0x0 SWAP1 DUP2 MSTORE PUSH1 0x20 DUP2 SWAP1 MSTORE PUSH1 0x40 DUP2 KECCAK256 DUP1 SLOAD DUP4 SWAP3 SWAP1 PUSH2 0x7D7 SWAP1 DUP5 SWAP1 PUSH2 0xBD0 JUMP JUMPDEST SWAP1 SWAP2 SSTORE POP POP CALLER PUSH1 0x0 SWAP1 DUP2 MSTORE PUSH1 0x1 PUSH1 0x20 SWAP1 DUP2 MSTORE PUSH1 0x40 DUP1 DUP4 KECCAK256 PUSH1 0x1 PUSH1 0x1 PUSH1 0xA0 SHL SUB DUP8 AND DUP5 MSTORE DUP3 MSTORE DUP1 DUP4 KECCAK256 DUP6 DUP5 MSTORE SWAP1 SWAP2 MSTORE SWAP1 KECCAK256 SLOAD PUSH2 0x86F JUMPI PUSH1 0x40 MLOAD PUSH4 0x21421707 PUSH1 0xE1 SHL DUP2 MSTORE PUSH1 0x1 PUSH1 0x1 PUSH1 0xA0 SHL SUB DUP5 AND SWAP1 PUSH4 0x42842E0E SWAP1 PUSH2 0x83C SWAP1 ADDRESS SWAP1 CALLER SWAP1 DUP8 SWAP1 PUSH1 0x4 ADD PUSH2 0xB43 JUMP JUMPDEST PUSH1 0x0 PUSH1 0x40 MLOAD DUP1 DUP4 SUB DUP2 PUSH1 0x0 DUP8 DUP1 EXTCODESIZE ISZERO DUP1 ISZERO PUSH2 0x856 JUMPI PUSH1 0x0 DUP1 REVERT JUMPDEST POP GAS CALL ISZERO DUP1 ISZERO PUSH2 0x86A JUMPI RETURNDATASIZE PUSH1 0x0 DUP1 RETURNDATACOPY RETURNDATASIZE PUSH1 0x0 REVERT JUMPDEST POP POP POP POP JUMPDEST POP POP POP JUMP JUMPDEST PUSH1 0x40 MLOAD PUSH4 0x21421707 PUSH1 0xE1 SHL DUP2 MSTORE PUSH1 0x1 PUSH1 0x1 PUSH1 0xA0 SHL SUB DUP4 AND SWAP1 PUSH4 0x42842E0E SWAP1 PUSH2 0x8A4 SWAP1 ADDRESS SWAP1 CALLER SWAP1 DUP7 SWAP1 PUSH1 0x4 ADD PUSH2 0xB43 JUMP JUMPDEST PUSH1 0x0 PUSH1 0x40 MLOAD DUP1 DUP4 SUB DUP2 PUSH1 0x0 DUP8 DUP1 EXTCODESIZE ISZERO DUP1 ISZERO PUSH2 0x8BE JUMPI PUSH1 0x0 DUP1 REVERT JUMPDEST POP GAS CALL ISZERO DUP1 ISZERO PUSH2 0x8D2 JUMPI RETURNDATASIZE PUSH1 0x0 DUP1 RETURNDATACOPY RETURNDATASIZE PUSH1 0x0 REVERT JUMPDEST POP POP POP POP POP POP JUMP JUMPDEST DUP1 CALLDATALOAD PUSH1 0x1 PUSH1 0x1 PUSH1 0xA0 SHL SUB DUP2 AND DUP2 EQ PUSH2 0x8F1 JUMPI PUSH1 0x0 DUP1 REVERT JUMPDEST SWAP2 SWAP1 POP JUMP JUMPDEST PUSH1 0x0 DUP1 PUSH1 0x0 DUP1 PUSH1 0x80 DUP6 DUP8 SUB SLT ISZERO PUSH2 0x90C JUMPI PUSH1 0x0 DUP1 REVERT JUMPDEST PUSH2 0x915 DUP6 PUSH2 0x8DA JUMP JUMPDEST SWAP4 POP PUSH2 0x923 PUSH1 0x20 DUP7 ADD PUSH2 0x8DA JUMP JUMPDEST SWAP3 POP PUSH2 0x931 PUSH1 0x40 DUP7 ADD PUSH2 0x8DA JUMP JUMPDEST SWAP4 SWAP7 SWAP3 SWAP6 POP SWAP3 SWAP4 PUSH1 0x60 ADD CALLDATALOAD SWAP3 POP POP JUMP JUMPDEST PUSH4 0x4E487B71 PUSH1 0xE0 SHL PUSH1 0x0 MSTORE PUSH1 0x41 PUSH1 0x4 MSTORE PUSH1 0x24 PUSH1 0x0 REVERT JUMPDEST PUSH1 0x0 DUP1 PUSH1 0x0 DUP1 PUSH1 0x80 DUP6 DUP8 SUB SLT ISZERO PUSH2 0x96D JUMPI PUSH1 0x0 DUP1 REVERT JUMPDEST PUSH2 0x976 DUP6 PUSH2 0x8DA JUMP JUMPDEST SWAP4 POP PUSH2 0x984 PUSH1 0x20 DUP7 ADD PUSH2 0x8DA JUMP JUMPDEST SWAP3 POP PUSH1 0x40 DUP6 ADD CALLDATALOAD SWAP2 POP PUSH1 0x60 DUP6 ADD CALLDATALOAD PUSH8 0xFFFFFFFFFFFFFFFF DUP1 DUP3 GT ISZERO PUSH2 0x9A8 JUMPI PUSH1 0x0 DUP1 REVERT JUMPDEST DUP2 DUP8 ADD SWAP2 POP DUP8 PUSH1 0x1F DUP4 ADD SLT PUSH2 0x9BC JUMPI PUSH1 0x0 DUP1 REVERT JUMPDEST DUP2 CALLDATALOAD DUP2 DUP2 GT ISZERO PUSH2 0x9CE JUMPI PUSH2 0x9CE PUSH2 0x941 JUMP JUMPDEST PUSH1 0x40 MLOAD PUSH1 0x1F DUP3 ADD PUSH1 0x1F NOT SWAP1 DUP2 AND PUSH1 0x3F ADD AND DUP2 ADD SWAP1 DUP4 DUP3 GT DUP2 DUP4 LT OR ISZERO PUSH2 0x9F6 JUMPI PUSH2 0x9F6 PUSH2 0x941 JUMP JUMPDEST DUP2 PUSH1 0x40 MSTORE DUP3 DUP2 MSTORE DUP11 PUSH1 0x20 DUP5 DUP8 ADD ADD GT ISZERO PUSH2 0xA0F JUMPI PUSH1 0x0 DUP1 REVERT JUMPDEST DUP3 PUSH1 0x20 DUP7 ADD PUSH1 0x20 DUP4 ADD CALLDATACOPY PUSH1 0x0 PUSH1 0x20 DUP5 DUP4 ADD ADD MSTORE DUP1 SWAP6 POP POP POP POP POP POP SWAP3 SWAP6 SWAP2 SWAP5 POP SWAP3 POP JUMP JUMPDEST PUSH1 0x0 DUP1 PUSH1 0x0 PUSH1 0x60 DUP5 DUP7 SUB SLT ISZERO PUSH2 0xA48 JUMPI PUSH1 0x0 DUP1 REVERT JUMPDEST PUSH2 0xA51 DUP5 PUSH2 0x8DA JUMP JUMPDEST SWAP3 POP PUSH2 0xA5F PUSH1 0x20 DUP6 ADD PUSH2 0x8DA JUMP JUMPDEST SWAP2 POP PUSH1 0x40 DUP5 ADD CALLDATALOAD SWAP1 POP SWAP3 POP SWAP3 POP SWAP3 JUMP JUMPDEST PUSH1 0x0 DUP1 PUSH1 0x0 DUP1 PUSH1 0x0 PUSH1 0xA0 DUP7 DUP9 SUB SLT ISZERO PUSH2 0xA87 JUMPI PUSH1 0x0 DUP1 REVERT JUMPDEST PUSH2 0xA90 DUP7 PUSH2 0x8DA JUMP JUMPDEST SWAP5 POP PUSH2 0xA9E PUSH1 0x20 DUP8 ADD PUSH2 0x8DA JUMP JUMPDEST SWAP4 POP PUSH2 0xAAC PUSH1 0x40 DUP8 ADD PUSH2 0x8DA JUMP JUMPDEST SWAP5 SWAP8 SWAP4 SWAP7 POP SWAP4 SWAP5 PUSH1 0x60 DUP2 ADD CALLDATALOAD SWAP5 POP PUSH1 0x80 ADD CALLDATALOAD SWAP3 SWAP2 POP POP JUMP JUMPDEST PUSH1 0x0 DUP1 PUSH1 0x0 PUSH1 0x60 DUP5 DUP7 SUB SLT ISZERO PUSH2 0xAD9 JUMPI PUSH1 0x0 DUP1 REVERT JUMPDEST PUSH2 0xAE2 DUP5 PUSH2 0x8DA JUMP JUMPDEST SWAP6 PUSH1 0x20 DUP6 ADD CALLDATALOAD SWAP6 POP PUSH1 0x40 SWAP1 SWAP5 ADD CALLDATALOAD SWAP4 SWAP3 POP POP POP JUMP JUMPDEST PUSH1 0x0 PUSH1 0x20 DUP3 DUP5 SUB SLT ISZERO PUSH2 0xB09 JUMPI PUSH1 0x0 DUP1 REVERT JUMPDEST PUSH2 0xB12 DUP3 PUSH2 0x8DA JUMP JUMPDEST SWAP4 SWAP3 POP POP POP JUMP JUMPDEST PUSH1 0x0 DUP1 PUSH1 0x40 DUP4 DUP6 SUB SLT ISZERO PUSH2 0xB2C JUMPI PUSH1 0x0 DUP1 REVERT JUMPDEST PUSH2 0xB35 DUP4 PUSH2 0x8DA JUMP JUMPDEST SWAP5 PUSH1 0x20 SWAP4 SWAP1 SWAP4 ADD CALLDATALOAD SWAP4 POP POP POP JUMP JUMPDEST PUSH1 0x1 PUSH1 0x1 PUSH1 0xA0 SHL SUB SWAP4 DUP5 AND DUP2 MSTORE SWAP2 SWAP1 SWAP3 AND PUSH1 0x20 DUP3 ADD MSTORE PUSH1 0x40 DUP2 ADD SWAP2 SWAP1 SWAP2 MSTORE PUSH1 0x60 ADD SWAP1 JUMP JUMPDEST PUSH4 0x4E487B71 PUSH1 0xE0 SHL PUSH1 0x0 MSTORE PUSH1 0x11 PUSH1 0x4 MSTORE PUSH1 0x24 PUSH1 0x0 REVERT JUMPDEST PUSH1 0x0 DUP3 NOT DUP3 GT ISZERO PUSH2 0xB90 JUMPI PUSH2 0xB90 PUSH2 0xB67 JUMP JUMPDEST POP ADD SWAP1 JUMP JUMPDEST PUSH1 0x0 PUSH1 0x20 DUP3 DUP5 SUB SLT ISZERO PUSH2 0xBA7 JUMPI PUSH1 0x0 DUP1 REVERT JUMPDEST POP MLOAD SWAP2 SWAP1 POP JUMP JUMPDEST PUSH1 0x0 PUSH1 0x20 DUP3 DUP5 SUB SLT ISZERO PUSH2 0xBC0 JUMPI PUSH1 0x0 DUP1 REVERT JUMPDEST DUP2 MLOAD DUP1 ISZERO ISZERO DUP2 EQ PUSH2 0xB12 JUMPI PUSH1 0x0 DUP1 REVERT JUMPDEST PUSH1 0x0 DUP3 DUP3 LT ISZERO PUSH2 0xBE2 JUMPI PUSH2 0xBE2 PUSH2 0xB67 JUMP JUMPDEST POP SUB SWAP1 JUMP INVALID LOG2 PUSH5 0x6970667358 0x22 SLT KECCAK256 0x25 PUSH9 0x38420D888773567379 EXTCODEHASH SLT SWAP10 PUSH9 0xEF07193AD9E72839BE 0xD 0xCF PUSH16 0x7C209374F64736F6C634300080B0033 ","sha1":"2a2d569110ab9e8b8589feeb79270b7d3feeec62","source":"//SPDX-License-Identifier: MIT\n\npragma solidity ^0.8.0;\n\nimport \"@openzeppelin/contracts/token/ERC721/IERC721.sol\";\nimport \"@openzeppelin/contracts/token/ERC20/IERC20.sol\";\nimport \"@openzeppelin/contracts/token/ERC721/IERC721Receiver.sol\";\nimport \"./Math.sol\";\n\ncontract Barter is IERC721Receiver {\n    using Math for uint256;\n\n    // struct for what each person owes, specific to what they bought\n    struct userBorrow {\n        uint256 amountOwed;\n        address buyer;\n        address seller;\n    }\n\n    mapping(address => uint256) totalborrowedETH;\n\n    // mapping: buyer -> NFT Contract => tokenID -> struct(money owed, buyer, seller)\n    mapping(address => mapping(address => mapping(uint256 => userBorrow)))\n        public loanTracker;\n    // will have to handle multiple purchases\n\n    address public constant WETH = 0xc778417E063141139Fce010982780140Aa0cD5Ab;\n\n    address owner;\n\n    constructor() {\n        owner = msg.sender;\n    }\n\n    ///@notice function transfers ownership from buyer to seller\n    ///@dev the calling contract/function must approve the transfer to the seller's address\n    function exchangeNFT(\n        address _buyer,\n        address _seller,\n        address _collection,\n        uint256 _tokenID\n    ) public {\n        IERC721(_collection).safeTransferFrom(_buyer, _seller, _tokenID);\n    }\n\n    ///@notice function transfers ownership from buyer to this contract to be held as collateral\n    ///@notice buyer will automaticall receive thier NFT back once they repay the item value\n    ///@dev the calling contract/function must approve the transfer to this contract address\n\n    // backend should check to see if there is enough collateral value, it will also allow user to buy multiple items against one NFT\n    function collateralizedPurchase(\n        address _buyer,\n        address _seller,\n        address _collection,\n        uint256 _tokenID,\n        uint256 _itemValue\n    ) public {\n        //if they purchsed from new seller with same NFT, they must have payed off thier old debts\n        if (loanTracker[_buyer][_collection][_tokenID].seller != _seller) {\n            require(loanTracker[_buyer][_collection][_tokenID].amountOwed == 0);\n        }\n\n        IERC721(_collection).safeTransferFrom(_buyer, address(this), _tokenID);\n\n        loanTracker[_buyer][_collection][_tokenID].amountOwed += _itemValue;\n        totalborrowedETH[_buyer] += _itemValue;\n        loanTracker[_buyer][_collection][_tokenID].seller = _seller;\n        //redundant?\n        loanTracker[_buyer][_collection][_tokenID].buyer = _buyer;\n    }\n\n    ///@notice buyer pays back what they owe in WETH only\n    ///@dev the calling contract/function must approve the transfer of ERC20 to the seller address\n    function repay(\n        address _collection,\n        uint256 _tokenID,\n        uint256 _amount\n    ) public {\n        //require(msg.sender == loanTracker[msg.sender][_collection][_tokenID].buyer);\n        //make sure user has enough WETH\n        require(\n            IERC20(WETH).balanceOf(msg.sender) >= _amount,\n            \"not enough WETH to repay\"\n        );\n        ///could use address _buyer\n        require(\n            loanTracker[msg.sender][_collection][_tokenID].amountOwed >=\n                _amount,\n            \"Cannot pay back more than you owe\"\n        );\n\n        IERC20(WETH).transferFrom(\n            msg.sender,\n            (loanTracker[msg.sender][_collection][_tokenID].seller),\n            _amount\n        );\n\n        loanTracker[msg.sender][_collection][_tokenID].amountOwed -= _amount; //minimum( _amount, loanTracker[_buyer][_collection][_tokenID].amountOwed)\n        totalborrowedETH[msg.sender] -= _amount;\n\n        //send NFT if debt is paid\n        if (loanTracker[msg.sender][_collection][_tokenID].amountOwed == 0) {\n            IERC721(_collection).safeTransferFrom(\n                address(this),\n                msg.sender,\n                _tokenID\n            );\n        }\n    }\n\n    ///@notice upon defualt, the store gets th NFT, and the user no longer owes money.\n    function handleDefault(\n        address _buyer,\n        address _collection,\n        uint256 _tokenID\n    ) public {\n        IERC721(_collection).safeTransferFrom(\n            address(this),\n            loanTracker[_buyer][_collection][_tokenID].seller,\n            _tokenID\n        );\n        loanTracker[_buyer][_collection][_tokenID].amountOwed = 0;\n        //delete mapping? or set buyer/seller to zero address?\n\n        //take after 30 days\n    }\n\n    function onERC721Received(\n        address,\n        address,\n        uint256,\n        bytes memory\n    ) public virtual override returns (bytes4) {\n        return this.onERC721Received.selector;\n    }\n\n    //_____________________________Helper Functions Begin Here_____________________________//\n\n    function minimum(uint256 a, uint256 b) internal pure returns (uint256) {\n        return a.min(b);\n    }\n\n    ///@notice returns the total eth quantity owed by a user\n    function totalValueBorrowed(address _buyer) public view returns (uint256) {\n        return totalborrowedETH[_buyer];\n    }\n\n    ///@notice returns value owed on 1 NFT used as collateral\n    function valueBorrowedOneNFT(\n        address _buyer,\n        address _collection,\n        uint256 _tokenID\n    ) public view returns (uint256) {\n        return loanTracker[_buyer][_collection][_tokenID].amountOwed;\n    }\n\n    ///@notice returns address of seller who has an NFT as collateral\n    function sellerCollateralNFT(\n        address _buyer,\n        address _collection,\n        uint256 _tokenID\n    ) public view returns (address) {\n        return loanTracker[_buyer][_collection][_tokenID].seller;\n    }\n\n    function emergencyExit(address nft, uint256 _tokenID) public {\n        IERC721(nft).safeTransferFrom(address(this), msg.sender, _tokenID);\n    }\n}\n","sourcePath":"contracts/Barter.sol","deployment":{"address":"0xF908424ee606CCcF49d71a87Ab7AB874a39e9CbD","chainid":"4","blockHeight":10470649}}