{
  "_format": "hh-sol-artifact-1",
  "contractName": "Barter",
  "sourceName": "contracts/Barter.sol",
  "abi": [
    {
      "inputs": [],
      "stateMutability": "nonpayable",
      "type": "constructor"
    },
    {
      "anonymous": false,
      "inputs": [
        {
          "indexed": true,
          "internalType": "bytes32",
          "name": "role",
          "type": "bytes32"
        },
        {
          "indexed": true,
          "internalType": "bytes32",
          "name": "previousAdminRole",
          "type": "bytes32"
        },
        {
          "indexed": true,
          "internalType": "bytes32",
          "name": "newAdminRole",
          "type": "bytes32"
        }
      ],
      "name": "RoleAdminChanged",
      "type": "event"
    },
    {
      "anonymous": false,
      "inputs": [
        {
          "indexed": true,
          "internalType": "bytes32",
          "name": "role",
          "type": "bytes32"
        },
        {
          "indexed": true,
          "internalType": "address",
          "name": "account",
          "type": "address"
        },
        {
          "indexed": true,
          "internalType": "address",
          "name": "sender",
          "type": "address"
        }
      ],
      "name": "RoleGranted",
      "type": "event"
    },
    {
      "anonymous": false,
      "inputs": [
        {
          "indexed": true,
          "internalType": "bytes32",
          "name": "role",
          "type": "bytes32"
        },
        {
          "indexed": true,
          "internalType": "address",
          "name": "account",
          "type": "address"
        },
        {
          "indexed": true,
          "internalType": "address",
          "name": "sender",
          "type": "address"
        }
      ],
      "name": "RoleRevoked",
      "type": "event"
    },
    {
      "inputs": [],
      "name": "ADMIN_ROLE",
      "outputs": [
        {
          "internalType": "bytes32",
          "name": "",
          "type": "bytes32"
        }
      ],
      "stateMutability": "view",
      "type": "function"
    },
    {
      "inputs": [],
      "name": "DEFAULT_ADMIN_ROLE",
      "outputs": [
        {
          "internalType": "bytes32",
          "name": "",
          "type": "bytes32"
        }
      ],
      "stateMutability": "view",
      "type": "function"
    },
    {
      "inputs": [],
      "name": "WETH",
      "outputs": [
        {
          "internalType": "address",
          "name": "",
          "type": "address"
        }
      ],
      "stateMutability": "view",
      "type": "function"
    },
    {
      "inputs": [
        {
          "internalType": "address",
          "name": "_newOwner",
          "type": "address"
        }
      ],
      "name": "addOwner",
      "outputs": [],
      "stateMutability": "nonpayable",
      "type": "function"
    },
    {
      "inputs": [
        {
          "internalType": "address",
          "name": "_buyer",
          "type": "address"
        },
        {
          "internalType": "address",
          "name": "_seller",
          "type": "address"
        },
        {
          "internalType": "address",
          "name": "_contract",
          "type": "address"
        },
        {
          "internalType": "uint256",
          "name": "_tokenID",
          "type": "uint256"
        },
        {
          "internalType": "uint256",
          "name": "_itemValue",
          "type": "uint256"
        }
      ],
      "name": "collateralizedPurchase",
      "outputs": [],
      "stateMutability": "nonpayable",
      "type": "function"
    },
    {
      "inputs": [
        {
          "internalType": "address",
          "name": "_contract",
          "type": "address"
        },
        {
          "internalType": "uint256",
          "name": "_tokenID",
          "type": "uint256"
        }
      ],
      "name": "emergencyExit",
      "outputs": [],
      "stateMutability": "nonpayable",
      "type": "function"
    },
    {
      "inputs": [
        {
          "internalType": "address",
          "name": "_buyer",
          "type": "address"
        },
        {
          "internalType": "address",
          "name": "_seller",
          "type": "address"
        },
        {
          "internalType": "address",
          "name": "_contract",
          "type": "address"
        },
        {
          "internalType": "uint256",
          "name": "_tokenID",
          "type": "uint256"
        }
      ],
      "name": "exchangeNFT",
      "outputs": [],
      "stateMutability": "nonpayable",
      "type": "function"
    },
    {
      "inputs": [
        {
          "internalType": "bytes32",
          "name": "role",
          "type": "bytes32"
        }
      ],
      "name": "getRoleAdmin",
      "outputs": [
        {
          "internalType": "bytes32",
          "name": "",
          "type": "bytes32"
        }
      ],
      "stateMutability": "view",
      "type": "function"
    },
    {
      "inputs": [
        {
          "internalType": "bytes32",
          "name": "role",
          "type": "bytes32"
        },
        {
          "internalType": "uint256",
          "name": "index",
          "type": "uint256"
        }
      ],
      "name": "getRoleMember",
      "outputs": [
        {
          "internalType": "address",
          "name": "",
          "type": "address"
        }
      ],
      "stateMutability": "view",
      "type": "function"
    },
    {
      "inputs": [
        {
          "internalType": "bytes32",
          "name": "role",
          "type": "bytes32"
        }
      ],
      "name": "getRoleMemberCount",
      "outputs": [
        {
          "internalType": "uint256",
          "name": "",
          "type": "uint256"
        }
      ],
      "stateMutability": "view",
      "type": "function"
    },
    {
      "inputs": [
        {
          "internalType": "bytes32",
          "name": "role",
          "type": "bytes32"
        },
        {
          "internalType": "address",
          "name": "account",
          "type": "address"
        }
      ],
      "name": "grantRole",
      "outputs": [],
      "stateMutability": "nonpayable",
      "type": "function"
    },
    {
      "inputs": [
        {
          "internalType": "address",
          "name": "_buyer",
          "type": "address"
        },
        {
          "internalType": "address",
          "name": "_contract",
          "type": "address"
        },
        {
          "internalType": "uint256",
          "name": "_tokenID",
          "type": "uint256"
        }
      ],
      "name": "handleDefault",
      "outputs": [],
      "stateMutability": "nonpayable",
      "type": "function"
    },
    {
      "inputs": [
        {
          "internalType": "bytes32",
          "name": "role",
          "type": "bytes32"
        },
        {
          "internalType": "address",
          "name": "account",
          "type": "address"
        }
      ],
      "name": "hasRole",
      "outputs": [
        {
          "internalType": "bool",
          "name": "",
          "type": "bool"
        }
      ],
      "stateMutability": "view",
      "type": "function"
    },
    {
      "inputs": [
        {
          "internalType": "address",
          "name": "",
          "type": "address"
        },
        {
          "internalType": "address",
          "name": "",
          "type": "address"
        },
        {
          "internalType": "uint256",
          "name": "",
          "type": "uint256"
        }
      ],
      "name": "loanTracker",
      "outputs": [
        {
          "internalType": "uint256",
          "name": "amountOwed",
          "type": "uint256"
        },
        {
          "internalType": "address",
          "name": "buyer",
          "type": "address"
        },
        {
          "internalType": "address",
          "name": "seller",
          "type": "address"
        },
        {
          "internalType": "uint256",
          "name": "timestamp",
          "type": "uint256"
        }
      ],
      "stateMutability": "view",
      "type": "function"
    },
    {
      "inputs": [
        {
          "internalType": "address",
          "name": "",
          "type": "address"
        },
        {
          "internalType": "address",
          "name": "",
          "type": "address"
        },
        {
          "internalType": "uint256",
          "name": "",
          "type": "uint256"
        },
        {
          "internalType": "bytes",
          "name": "",
          "type": "bytes"
        }
      ],
      "name": "onERC721Received",
      "outputs": [
        {
          "internalType": "bytes4",
          "name": "",
          "type": "bytes4"
        }
      ],
      "stateMutability": "nonpayable",
      "type": "function"
    },
    {
      "inputs": [
        {
          "internalType": "bytes32",
          "name": "role",
          "type": "bytes32"
        },
        {
          "internalType": "address",
          "name": "account",
          "type": "address"
        }
      ],
      "name": "renounceRole",
      "outputs": [],
      "stateMutability": "nonpayable",
      "type": "function"
    },
    {
      "inputs": [
        {
          "internalType": "address",
          "name": "_buyer",
          "type": "address"
        },
        {
          "internalType": "address",
          "name": "_contract",
          "type": "address"
        },
        {
          "internalType": "uint256",
          "name": "_tokenID",
          "type": "uint256"
        },
        {
          "internalType": "uint256",
          "name": "_amount",
          "type": "uint256"
        }
      ],
      "name": "repay",
      "outputs": [],
      "stateMutability": "nonpayable",
      "type": "function"
    },
    {
      "inputs": [
        {
          "internalType": "bytes32",
          "name": "role",
          "type": "bytes32"
        },
        {
          "internalType": "address",
          "name": "account",
          "type": "address"
        }
      ],
      "name": "revokeRole",
      "outputs": [],
      "stateMutability": "nonpayable",
      "type": "function"
    },
    {
      "inputs": [
        {
          "internalType": "address",
          "name": "_buyer",
          "type": "address"
        },
        {
          "internalType": "address",
          "name": "_contract",
          "type": "address"
        },
        {
          "internalType": "uint256",
          "name": "_tokenID",
          "type": "uint256"
        }
      ],
      "name": "sellerCollateralNFT",
      "outputs": [
        {
          "internalType": "address",
          "name": "",
          "type": "address"
        }
      ],
      "stateMutability": "view",
      "type": "function"
    },
    {
      "inputs": [
        {
          "internalType": "bytes4",
          "name": "interfaceId",
          "type": "bytes4"
        }
      ],
      "name": "supportsInterface",
      "outputs": [
        {
          "internalType": "bool",
          "name": "",
          "type": "bool"
        }
      ],
      "stateMutability": "view",
      "type": "function"
    },
    {
      "inputs": [
        {
          "internalType": "address",
          "name": "_buyer",
          "type": "address"
        }
      ],
      "name": "totalValueBorrowed",
      "outputs": [
        {
          "internalType": "uint256",
          "name": "",
          "type": "uint256"
        }
      ],
      "stateMutability": "view",
      "type": "function"
    },
    {
      "inputs": [
        {
          "internalType": "address",
          "name": "_buyer",
          "type": "address"
        },
        {
          "internalType": "address",
          "name": "_contract",
          "type": "address"
        },
        {
          "internalType": "uint256",
          "name": "_tokenID",
          "type": "uint256"
        }
      ],
      "name": "valueBorrowedOneNFT",
      "outputs": [
        {
          "internalType": "uint256",
          "name": "",
          "type": "uint256"
        }
      ],
      "stateMutability": "view",
      "type": "function"
    }
  ],
  "bytecode": "0x60806040523480156200001157600080fd5b50620000447fa49807205ce4d355092ef5a8a18f56e8913cf4a201fbe287825b095693c21775336200007c60201b60201c565b620000767fa49807205ce4d355092ef5a8a18f56e8913cf4a201fbe287825b095693c21775306200007c60201b60201c565b62000312565b6200008e82826200009260201b60201c565b5050565b620000a98282620000da60201b62001eec1760201c565b620000d58160016000858152602001908152602001600020620001cb60201b62001fcc1790919060201c565b505050565b620000ec82826200020360201b60201c565b620001c757600160008084815260200190815260200160002060000160008373ffffffffffffffffffffffffffffffffffffffff1673ffffffffffffffffffffffffffffffffffffffff16815260200190815260200160002060006101000a81548160ff0219169083151502179055506200016c6200026d60201b60201c565b73ffffffffffffffffffffffffffffffffffffffff168173ffffffffffffffffffffffffffffffffffffffff16837f2f8788117e7eff1d82e926ec794901d17c78024a50270940304540a733656f0d60405160405180910390a45b5050565b6000620001fb836000018373ffffffffffffffffffffffffffffffffffffffff1660001b6200027560201b60201c565b905092915050565b600080600084815260200190815260200160002060000160008373ffffffffffffffffffffffffffffffffffffffff1673ffffffffffffffffffffffffffffffffffffffff16815260200190815260200160002060009054906101000a900460ff16905092915050565b600033905090565b6000620002898383620002ef60201b60201c565b620002e4578260000182908060018154018082558091505060019003906000526020600020016000909190919091505582600001805490508360010160008481526020019081526020016000208190555060019050620002e9565b600090505b92915050565b600080836001016000848152602001908152602001600020541415905092915050565b61365880620003226000396000f3fe608060405234801561001057600080fd5b50600436106101425760003560e01c806375b238fc116100b8578063a217fddf1161007c578063a217fddf146103ac578063ad5c4648146103ca578063ca15c873146103e8578063d547741f14610418578063f2df757b14610434578063f61556c81461046457610142565b806375b238fc146102cb5780639010d07c146102e957806391d1485414610319578063946ccfc0146103495780639fed03001461037c57610142565b80632f2ff15d1161010a5780632f2ff15d1461020f57806336568abe1461022b5780633a1657b4146102475780634900274914610277578063617a19c0146102935780637065cb48146102af57610142565b806301ffc9a7146101475780630b1eedb814610177578063150b7a02146101935780631e315fd6146101c3578063248a9ca3146101df575b600080fd5b610161600480360381019061015c9190612ccc565b610480565b60405161016e9190612f77565b60405180910390f35b610191600480360381019061018c91906129bf565b6104fa565b005b6101ad60048036038101906101a89190612ae8565b61056f565b6040516101ba9190612fad565b60405180910390f35b6101dd60048036038101906101d89190612a99565b610583565b005b6101f960048036038101906101f49190612c2b565b610ba2565b6040516102069190612f92565b60405180910390f35b61022960048036038101906102249190612c54565b610bc1565b005b61024560048036038101906102409190612c54565b610bea565b005b610261600480360381019061025c9190612a99565b610c6d565b60405161026e9190612f25565b60405180910390f35b610291600480360381019061028c9190612b63565b610d29565b005b6102ad60048036038101906102a89190612a22565b611521565b005b6102c960048036038101906102c49190612996565b611ae2565b005b6102d3611b78565b6040516102e09190612f92565b60405180910390f35b61030360048036038101906102fe9190612c90565b611b9c565b6040516103109190612f25565b60405180910390f35b610333600480360381019061032e9190612c54565b611bcb565b6040516103409190612f77565b60405180910390f35b610363600480360381019061035e9190612a99565b611c35565b60405161037394939291906130c5565b60405180910390f35b61039660048036038101906103919190612a99565b611cbf565b6040516103a391906130aa565b60405180910390f35b6103b4611d5b565b6040516103c19190612f92565b60405180910390f35b6103d2611d62565b6040516103df9190612f25565b60405180910390f35b61040260048036038101906103fd9190612c2b565b611d7a565b60405161040f91906130aa565b60405180910390f35b610432600480360381019061042d9190612c54565b611d9e565b005b61044e60048036038101906104499190612996565b611dc7565b60405161045b91906130aa565b60405180910390f35b61047e60048036038101906104799190612bc6565b611e10565b005b60007f5a05180f000000000000000000000000000000000000000000000000000000007bffffffffffffffffffffffffffffffffffffffffffffffffffffffff1916827bffffffffffffffffffffffffffffffffffffffffffffffffffffffff191614806104f357506104f282611ffc565b5b9050919050565b8173ffffffffffffffffffffffffffffffffffffffff166342842e0e8585846040518463ffffffff1660e01b815260040161053793929190612f40565b600060405180830381600087803b15801561055157600080fd5b505af1158015610565573d6000803e3d6000fd5b5050505050505050565b600063150b7a0260e01b9050949350505050565b6105ad7fa49807205ce4d355092ef5a8a18f56e8913cf4a201fbe287825b095693c2177533611bcb565b6105ec576040517f08c379a00000000000000000000000000000000000000000000000000000000081526004016105e39061302a565b60405180910390fd5b62278d00600360008573ffffffffffffffffffffffffffffffffffffffff1673ffffffffffffffffffffffffffffffffffffffff16815260200190815260200160002060008473ffffffffffffffffffffffffffffffffffffffff1673ffffffffffffffffffffffffffffffffffffffff16815260200190815260200160002060008381526020019081526020016000206003015461068b9190613187565b42116106cc576040517f08c379a00000000000000000000000000000000000000000000000000000000081526004016106c39061306a565b60405180910390fd5b8173ffffffffffffffffffffffffffffffffffffffff166342842e0e30600360008773ffffffffffffffffffffffffffffffffffffffff1673ffffffffffffffffffffffffffffffffffffffff16815260200190815260200160002060008673ffffffffffffffffffffffffffffffffffffffff1673ffffffffffffffffffffffffffffffffffffffff168152602001908152602001600020600085815260200190815260200160002060020160009054906101000a900473ffffffffffffffffffffffffffffffffffffffff16846040518463ffffffff1660e01b81526004016107b993929190612f40565b600060405180830381600087803b1580156107d357600080fd5b505af11580156107e7573d6000803e3d6000fd5b50505050600360008473ffffffffffffffffffffffffffffffffffffffff1673ffffffffffffffffffffffffffffffffffffffff16815260200190815260200160002060008373ffffffffffffffffffffffffffffffffffffffff1673ffffffffffffffffffffffffffffffffffffffff168152602001908152602001600020600082815260200190815260200160002060000154600260008573ffffffffffffffffffffffffffffffffffffffff1673ffffffffffffffffffffffffffffffffffffffff16815260200190815260200160002060008282546108ca9190613237565b925050819055506000600360008573ffffffffffffffffffffffffffffffffffffffff1673ffffffffffffffffffffffffffffffffffffffff16815260200190815260200160002060008473ffffffffffffffffffffffffffffffffffffffff1673ffffffffffffffffffffffffffffffffffffffff1681526020019081526020016000206000838152602001908152602001600020600001819055506000600360008573ffffffffffffffffffffffffffffffffffffffff1673ffffffffffffffffffffffffffffffffffffffff16815260200190815260200160002060008473ffffffffffffffffffffffffffffffffffffffff1673ffffffffffffffffffffffffffffffffffffffff1681526020019081526020016000206000838152602001908152602001600020600301819055506000600360008573ffffffffffffffffffffffffffffffffffffffff1673ffffffffffffffffffffffffffffffffffffffff16815260200190815260200160002060008473ffffffffffffffffffffffffffffffffffffffff1673ffffffffffffffffffffffffffffffffffffffff168152602001908152602001600020600083815260200190815260200160002060010160006101000a81548173ffffffffffffffffffffffffffffffffffffffff021916908373ffffffffffffffffffffffffffffffffffffffff1602179055506000600360008573ffffffffffffffffffffffffffffffffffffffff1673ffffffffffffffffffffffffffffffffffffffff16815260200190815260200160002060008473ffffffffffffffffffffffffffffffffffffffff1673ffffffffffffffffffffffffffffffffffffffff168152602001908152602001600020600083815260200190815260200160002060020160006101000a81548173ffffffffffffffffffffffffffffffffffffffff021916908373ffffffffffffffffffffffffffffffffffffffff160217905550505050565b6000806000838152602001908152602001600020600101549050919050565b610bca82610ba2565b610bdb81610bd6612076565b61207e565b610be5838361211b565b505050565b610bf2612076565b73ffffffffffffffffffffffffffffffffffffffff168173ffffffffffffffffffffffffffffffffffffffff1614610c5f576040517f08c379a0000000000000000000000000000000000000000000000000000000008152600401610c569061308a565b60405180910390fd5b610c69828261214f565b5050565b6000600360008573ffffffffffffffffffffffffffffffffffffffff1673ffffffffffffffffffffffffffffffffffffffff16815260200190815260200160002060008473ffffffffffffffffffffffffffffffffffffffff1673ffffffffffffffffffffffffffffffffffffffff168152602001908152602001600020600083815260200190815260200160002060020160009054906101000a900473ffffffffffffffffffffffffffffffffffffffff1690509392505050565b8073c778417e063141139fce010982780140aa0cd5ab73ffffffffffffffffffffffffffffffffffffffff166370a08231336040518263ffffffff1660e01b8152600401610d779190612f25565b60206040518083038186803b158015610d8f57600080fd5b505afa158015610da3573d6000803e3d6000fd5b505050506040513d601f19601f82011682018060405250810190610dc79190612cf5565b1015610e08576040517f08c379a0000000000000000000000000000000000000000000000000000000008152600401610dff9061300a565b60405180910390fd5b80600360008673ffffffffffffffffffffffffffffffffffffffff1673ffffffffffffffffffffffffffffffffffffffff16815260200190815260200160002060008573ffffffffffffffffffffffffffffffffffffffff1673ffffffffffffffffffffffffffffffffffffffff1681526020019081526020016000206000848152602001908152602001600020600001541015610edb576040517f08c379a0000000000000000000000000000000000000000000000000000000008152600401610ed29061304a565b60405180910390fd5b73c778417e063141139fce010982780140aa0cd5ab73ffffffffffffffffffffffffffffffffffffffff166323b872dd33600360003373ffffffffffffffffffffffffffffffffffffffff1673ffffffffffffffffffffffffffffffffffffffff16815260200190815260200160002060008773ffffffffffffffffffffffffffffffffffffffff1673ffffffffffffffffffffffffffffffffffffffff168152602001908152602001600020600086815260200190815260200160002060020160009054906101000a900473ffffffffffffffffffffffffffffffffffffffff16846040518463ffffffff1660e01b8152600401610fdc93929190612f40565b602060405180830381600087803b158015610ff657600080fd5b505af115801561100a573d6000803e3d6000fd5b505050506040513d601f19601f8201168201806040525081019061102e9190612c02565b5080600360008673ffffffffffffffffffffffffffffffffffffffff1673ffffffffffffffffffffffffffffffffffffffff16815260200190815260200160002060008573ffffffffffffffffffffffffffffffffffffffff1673ffffffffffffffffffffffffffffffffffffffff168152602001908152602001600020600084815260200190815260200160002060000160008282546110cf9190613237565b9250508190555080600260008673ffffffffffffffffffffffffffffffffffffffff1673ffffffffffffffffffffffffffffffffffffffff16815260200190815260200160002060008282546111259190613237565b925050819055506000600360008673ffffffffffffffffffffffffffffffffffffffff1673ffffffffffffffffffffffffffffffffffffffff16815260200190815260200160002060008573ffffffffffffffffffffffffffffffffffffffff1673ffffffffffffffffffffffffffffffffffffffff168152602001908152602001600020600084815260200190815260200160002060000154141561151b578273ffffffffffffffffffffffffffffffffffffffff166342842e0e30600360008873ffffffffffffffffffffffffffffffffffffffff1673ffffffffffffffffffffffffffffffffffffffff16815260200190815260200160002060008773ffffffffffffffffffffffffffffffffffffffff1673ffffffffffffffffffffffffffffffffffffffff168152602001908152602001600020600086815260200190815260200160002060010160009054906101000a900473ffffffffffffffffffffffffffffffffffffffff16856040518463ffffffff1660e01b81526004016112b293929190612f40565b600060405180830381600087803b1580156112cc57600080fd5b505af11580156112e0573d6000803e3d6000fd5b505050506000600360008673ffffffffffffffffffffffffffffffffffffffff1673ffffffffffffffffffffffffffffffffffffffff16815260200190815260200160002060008573ffffffffffffffffffffffffffffffffffffffff1673ffffffffffffffffffffffffffffffffffffffff1681526020019081526020016000206000848152602001908152602001600020600301819055506000600360008673ffffffffffffffffffffffffffffffffffffffff1673ffffffffffffffffffffffffffffffffffffffff16815260200190815260200160002060008573ffffffffffffffffffffffffffffffffffffffff1673ffffffffffffffffffffffffffffffffffffffff168152602001908152602001600020600084815260200190815260200160002060010160006101000a81548173ffffffffffffffffffffffffffffffffffffffff021916908373ffffffffffffffffffffffffffffffffffffffff1602179055506000600360008673ffffffffffffffffffffffffffffffffffffffff1673ffffffffffffffffffffffffffffffffffffffff16815260200190815260200160002060008573ffffffffffffffffffffffffffffffffffffffff1673ffffffffffffffffffffffffffffffffffffffff168152602001908152602001600020600084815260200190815260200160002060020160006101000a81548173ffffffffffffffffffffffffffffffffffffffff021916908373ffffffffffffffffffffffffffffffffffffffff1602179055505b50505050565b8373ffffffffffffffffffffffffffffffffffffffff16600360008773ffffffffffffffffffffffffffffffffffffffff1673ffffffffffffffffffffffffffffffffffffffff16815260200190815260200160002060008573ffffffffffffffffffffffffffffffffffffffff1673ffffffffffffffffffffffffffffffffffffffff168152602001908152602001600020600084815260200190815260200160002060020160009054906101000a900473ffffffffffffffffffffffffffffffffffffffff1673ffffffffffffffffffffffffffffffffffffffff16146116a2576000600360008773ffffffffffffffffffffffffffffffffffffffff1673ffffffffffffffffffffffffffffffffffffffff16815260200190815260200160002060008573ffffffffffffffffffffffffffffffffffffffff1673ffffffffffffffffffffffffffffffffffffffff168152602001908152602001600020600084815260200190815260200160002060000154146116a157600080fd5b5b6000600360008773ffffffffffffffffffffffffffffffffffffffff1673ffffffffffffffffffffffffffffffffffffffff16815260200190815260200160002060008573ffffffffffffffffffffffffffffffffffffffff1673ffffffffffffffffffffffffffffffffffffffff16815260200190815260200160002060008481526020019081526020016000206003015414156117d15742600360008773ffffffffffffffffffffffffffffffffffffffff1673ffffffffffffffffffffffffffffffffffffffff16815260200190815260200160002060008573ffffffffffffffffffffffffffffffffffffffff1673ffffffffffffffffffffffffffffffffffffffff1681526020019081526020016000206000848152602001908152602001600020600301819055505b8273ffffffffffffffffffffffffffffffffffffffff166342842e0e8630856040518463ffffffff1660e01b815260040161180e93929190612f40565b600060405180830381600087803b15801561182857600080fd5b505af115801561183c573d6000803e3d6000fd5b5050505080600360008773ffffffffffffffffffffffffffffffffffffffff1673ffffffffffffffffffffffffffffffffffffffff16815260200190815260200160002060008573ffffffffffffffffffffffffffffffffffffffff1673ffffffffffffffffffffffffffffffffffffffff168152602001908152602001600020600084815260200190815260200160002060000160008282546118e09190613187565b9250508190555080600260008773ffffffffffffffffffffffffffffffffffffffff1673ffffffffffffffffffffffffffffffffffffffff16815260200190815260200160002060008282546119369190613187565b9250508190555083600360008773ffffffffffffffffffffffffffffffffffffffff1673ffffffffffffffffffffffffffffffffffffffff16815260200190815260200160002060008573ffffffffffffffffffffffffffffffffffffffff1673ffffffffffffffffffffffffffffffffffffffff168152602001908152602001600020600084815260200190815260200160002060020160006101000a81548173ffffffffffffffffffffffffffffffffffffffff021916908373ffffffffffffffffffffffffffffffffffffffff16021790555084600360008773ffffffffffffffffffffffffffffffffffffffff1673ffffffffffffffffffffffffffffffffffffffff16815260200190815260200160002060008573ffffffffffffffffffffffffffffffffffffffff1673ffffffffffffffffffffffffffffffffffffffff168152602001908152602001600020600084815260200190815260200160002060010160006101000a81548173ffffffffffffffffffffffffffffffffffffffff021916908373ffffffffffffffffffffffffffffffffffffffff1602179055505050505050565b611b0c7fa49807205ce4d355092ef5a8a18f56e8913cf4a201fbe287825b095693c2177533611bcb565b611b4b576040517f08c379a0000000000000000000000000000000000000000000000000000000008152600401611b429061302a565b60405180910390fd5b611b757fa49807205ce4d355092ef5a8a18f56e8913cf4a201fbe287825b095693c2177582612183565b50565b7fa49807205ce4d355092ef5a8a18f56e8913cf4a201fbe287825b095693c2177581565b6000611bc3826001600086815260200190815260200160002061219190919063ffffffff16565b905092915050565b600080600084815260200190815260200160002060000160008373ffffffffffffffffffffffffffffffffffffffff1673ffffffffffffffffffffffffffffffffffffffff16815260200190815260200160002060009054906101000a900460ff16905092915050565b600360205282600052604060002060205281600052604060002060205280600052604060002060009250925050508060000154908060010160009054906101000a900473ffffffffffffffffffffffffffffffffffffffff16908060020160009054906101000a900473ffffffffffffffffffffffffffffffffffffffff16908060030154905084565b6000600360008573ffffffffffffffffffffffffffffffffffffffff1673ffffffffffffffffffffffffffffffffffffffff16815260200190815260200160002060008473ffffffffffffffffffffffffffffffffffffffff1673ffffffffffffffffffffffffffffffffffffffff16815260200190815260200160002060008381526020019081526020016000206000015490509392505050565b6000801b81565b73c778417e063141139fce010982780140aa0cd5ab81565b6000611d97600160008481526020019081526020016000206121ab565b9050919050565b611da782610ba2565b611db881611db3612076565b61207e565b611dc2838361214f565b505050565b6000600260008373ffffffffffffffffffffffffffffffffffffffff1673ffffffffffffffffffffffffffffffffffffffff168152602001908152602001600020549050919050565b611e3a7fa49807205ce4d355092ef5a8a18f56e8913cf4a201fbe287825b095693c2177533611bcb565b611e79576040517f08c379a0000000000000000000000000000000000000000000000000000000008152600401611e709061302a565b60405180910390fd5b8173ffffffffffffffffffffffffffffffffffffffff166342842e0e3033846040518463ffffffff1660e01b8152600401611eb693929190612f40565b600060405180830381600087803b158015611ed057600080fd5b505af1158015611ee4573d6000803e3d6000fd5b505050505050565b611ef68282611bcb565b611fc857600160008084815260200190815260200160002060000160008373ffffffffffffffffffffffffffffffffffffffff1673ffffffffffffffffffffffffffffffffffffffff16815260200190815260200160002060006101000a81548160ff021916908315150217905550611f6d612076565b73ffffffffffffffffffffffffffffffffffffffff168173ffffffffffffffffffffffffffffffffffffffff16837f2f8788117e7eff1d82e926ec794901d17c78024a50270940304540a733656f0d60405160405180910390a45b5050565b6000611ff4836000018373ffffffffffffffffffffffffffffffffffffffff1660001b6121c0565b905092915050565b60007f7965db0b000000000000000000000000000000000000000000000000000000007bffffffffffffffffffffffffffffffffffffffffffffffffffffffff1916827bffffffffffffffffffffffffffffffffffffffffffffffffffffffff1916148061206f575061206e82612230565b5b9050919050565b600033905090565b6120888282611bcb565b612117576120ad8173ffffffffffffffffffffffffffffffffffffffff16601461229a565b6120bb8360001c602061229a565b6040516020016120cc929190612eeb565b6040516020818303038152906040526040517f08c379a000000000000000000000000000000000000000000000000000000000815260040161210e9190612fc8565b60405180910390fd5b5050565b6121258282611eec565b61214a8160016000858152602001908152602001600020611fcc90919063ffffffff16565b505050565b6121598282612594565b61217e816001600085815260200190815260200160002061267590919063ffffffff16565b505050565b61218d828261211b565b5050565b60006121a083600001836126a5565b60001c905092915050565b60006121b9826000016126f6565b9050919050565b60006121cc8383612707565b61222557826000018290806001815401808255809150506001900390600052602060002001600090919091909150558260000180549050836001016000848152602001908152602001600020819055506001905061222a565b600090505b92915050565b60007f01ffc9a7000000000000000000000000000000000000000000000000000000007bffffffffffffffffffffffffffffffffffffffffffffffffffffffff1916827bffffffffffffffffffffffffffffffffffffffffffffffffffffffff1916149050919050565b6060600060028360026122ad91906131dd565b6122b79190613187565b67ffffffffffffffff8111156122f6577f4e487b7100000000000000000000000000000000000000000000000000000000600052604160045260246000fd5b6040519080825280601f01601f1916602001820160405280156123285781602001600182028036833780820191505090505b5090507f300000000000000000000000000000000000000000000000000000000000000081600081518110612386577f4e487b7100000000000000000000000000000000000000000000000000000000600052603260045260246000fd5b60200101907effffffffffffffffffffffffffffffffffffffffffffffffffffffffffffff1916908160001a9053507f780000000000000000000000000000000000000000000000000000000000000081600181518110612410577f4e487b7100000000000000000000000000000000000000000000000000000000600052603260045260246000fd5b60200101907effffffffffffffffffffffffffffffffffffffffffffffffffffffffffffff1916908160001a9053506000600184600261245091906131dd565b61245a9190613187565b90505b6001811115612546577f3031323334353637383961626364656600000000000000000000000000000000600f8616601081106124c2577f4e487b7100000000000000000000000000000000000000000000000000000000600052603260045260246000fd5b1a60f81b8282815181106124ff577f4e487b7100000000000000000000000000000000000000000000000000000000600052603260045260246000fd5b60200101907effffffffffffffffffffffffffffffffffffffffffffffffffffffffffffff1916908160001a905350600485901c94508061253f9061332b565b905061245d565b506000841461258a576040517f08c379a000000000000000000000000000000000000000000000000000000000815260040161258190612fea565b60405180910390fd5b8091505092915050565b61259e8282611bcb565b1561267157600080600084815260200190815260200160002060000160008373ffffffffffffffffffffffffffffffffffffffff1673ffffffffffffffffffffffffffffffffffffffff16815260200190815260200160002060006101000a81548160ff021916908315150217905550612616612076565b73ffffffffffffffffffffffffffffffffffffffff168173ffffffffffffffffffffffffffffffffffffffff16837ff6391f5c32d9c69d2a47ea670b442974b53935d1edc7fd64eb21e047a839171b60405160405180910390a45b5050565b600061269d836000018373ffffffffffffffffffffffffffffffffffffffff1660001b61272a565b905092915050565b60008260000182815481106126e3577f4e487b7100000000000000000000000000000000000000000000000000000000600052603260045260246000fd5b9060005260206000200154905092915050565b600081600001805490509050919050565b600080836001016000848152602001908152602001600020541415905092915050565b600080836001016000848152602001908152602001600020549050600081146128a457600060018261275c9190613237565b90506000600186600001805490506127749190613237565b905081811461282f5760008660000182815481106127bb577f4e487b7100000000000000000000000000000000000000000000000000000000600052603260045260246000fd5b9060005260206000200154905080876000018481548110612805577f4e487b7100000000000000000000000000000000000000000000000000000000600052603260045260246000fd5b90600052602060002001819055508387600101600083815260200190815260200160002081905550505b85600001805480612869577f4e487b7100000000000000000000000000000000000000000000000000000000600052603160045260246000fd5b6001900381819060005260206000200160009055905585600101600086815260200190815260200160002060009055600193505050506128aa565b60009150505b92915050565b60006128c36128be8461312f565b61310a565b9050828152602081018484840111156128db57600080fd5b6128e68482856132e9565b509392505050565b6000813590506128fd816135af565b92915050565b600081519050612912816135c6565b92915050565b600081359050612927816135dd565b92915050565b60008135905061293c816135f4565b92915050565b600082601f83011261295357600080fd5b81356129638482602086016128b0565b91505092915050565b60008135905061297b8161360b565b92915050565b6000815190506129908161360b565b92915050565b6000602082840312156129a857600080fd5b60006129b6848285016128ee565b91505092915050565b600080600080608085870312156129d557600080fd5b60006129e3878288016128ee565b94505060206129f4878288016128ee565b9350506040612a05878288016128ee565b9250506060612a168782880161296c565b91505092959194509250565b600080600080600060a08688031215612a3a57600080fd5b6000612a48888289016128ee565b9550506020612a59888289016128ee565b9450506040612a6a888289016128ee565b9350506060612a7b8882890161296c565b9250506080612a8c8882890161296c565b9150509295509295909350565b600080600060608486031215612aae57600080fd5b6000612abc868287016128ee565b9350506020612acd868287016128ee565b9250506040612ade8682870161296c565b9150509250925092565b60008060008060808587031215612afe57600080fd5b6000612b0c878288016128ee565b9450506020612b1d878288016128ee565b9350506040612b2e8782880161296c565b925050606085013567ffffffffffffffff811115612b4b57600080fd5b612b5787828801612942565b91505092959194509250565b60008060008060808587031215612b7957600080fd5b6000612b87878288016128ee565b9450506020612b98878288016128ee565b9350506040612ba98782880161296c565b9250506060612bba8782880161296c565b91505092959194509250565b60008060408385031215612bd957600080fd5b6000612be7858286016128ee565b9250506020612bf88582860161296c565b9150509250929050565b600060208284031215612c1457600080fd5b6000612c2284828501612903565b91505092915050565b600060208284031215612c3d57600080fd5b6000612c4b84828501612918565b91505092915050565b60008060408385031215612c6757600080fd5b6000612c7585828601612918565b9250506020612c86858286016128ee565b9150509250929050565b60008060408385031215612ca357600080fd5b6000612cb185828601612918565b9250506020612cc28582860161296c565b9150509250929050565b600060208284031215612cde57600080fd5b6000612cec8482850161292d565b91505092915050565b600060208284031215612d0757600080fd5b6000612d1584828501612981565b91505092915050565b612d278161326b565b82525050565b612d368161327d565b82525050565b612d4581613289565b82525050565b612d5481613293565b82525050565b6000612d6582613160565b612d6f818561316b565b9350612d7f8185602086016132f8565b612d88816133e4565b840191505092915050565b6000612d9e82613160565b612da8818561317c565b9350612db88185602086016132f8565b80840191505092915050565b6000612dd160208361316b565b9150612ddc826133f5565b602082019050919050565b6000612df460188361316b565b9150612dff8261341e565b602082019050919050565b6000612e1760148361316b565b9150612e2282613447565b602082019050919050565b6000612e3a60178361317c565b9150612e4582613470565b601782019050919050565b6000612e5d60218361316b565b9150612e6882613499565b604082019050919050565b6000612e8060228361316b565b9150612e8b826134e8565b604082019050919050565b6000612ea360118361317c565b9150612eae82613537565b601182019050919050565b6000612ec6602f8361316b565b9150612ed182613560565b604082019050919050565b612ee5816132df565b82525050565b6000612ef682612e2d565b9150612f028285612d93565b9150612f0d82612e96565b9150612f198284612d93565b91508190509392505050565b6000602082019050612f3a6000830184612d1e565b92915050565b6000606082019050612f556000830186612d1e565b612f626020830185612d1e565b612f6f6040830184612edc565b949350505050565b6000602082019050612f8c6000830184612d2d565b92915050565b6000602082019050612fa76000830184612d3c565b92915050565b6000602082019050612fc26000830184612d4b565b92915050565b60006020820190508181036000830152612fe28184612d5a565b905092915050565b6000602082019050818103600083015261300381612dc4565b9050919050565b6000602082019050818103600083015261302381612de7565b9050919050565b6000602082019050818103600083015261304381612e0a565b9050919050565b6000602082019050818103600083015261306381612e50565b9050919050565b6000602082019050818103600083015261308381612e73565b9050919050565b600060208201905081810360008301526130a381612eb9565b9050919050565b60006020820190506130bf6000830184612edc565b92915050565b60006080820190506130da6000830187612edc565b6130e76020830186612d1e565b6130f46040830185612d1e565b6131016060830184612edc565b95945050505050565b6000613114613125565b90506131208282613355565b919050565b6000604051905090565b600067ffffffffffffffff82111561314a576131496133b5565b5b613153826133e4565b9050602081019050919050565b600081519050919050565b600082825260208201905092915050565b600081905092915050565b6000613192826132df565b915061319d836132df565b9250827fffffffffffffffffffffffffffffffffffffffffffffffffffffffffffffffff038211156131d2576131d1613386565b5b828201905092915050565b60006131e8826132df565b91506131f3836132df565b9250817fffffffffffffffffffffffffffffffffffffffffffffffffffffffffffffffff048311821515161561322c5761322b613386565b5b828202905092915050565b6000613242826132df565b915061324d836132df565b9250828210156132605761325f613386565b5b828203905092915050565b6000613276826132bf565b9050919050565b60008115159050919050565b6000819050919050565b60007fffffffff0000000000000000000000000000000000000000000000000000000082169050919050565b600073ffffffffffffffffffffffffffffffffffffffff82169050919050565b6000819050919050565b82818337600083830152505050565b60005b838110156133165780820151818401526020810190506132fb565b83811115613325576000848401525b50505050565b6000613336826132df565b9150600082141561334a57613349613386565b5b600182039050919050565b61335e826133e4565b810181811067ffffffffffffffff8211171561337d5761337c6133b5565b5b80604052505050565b7f4e487b7100000000000000000000000000000000000000000000000000000000600052601160045260246000fd5b7f4e487b7100000000000000000000000000000000000000000000000000000000600052604160045260246000fd5b6000601f19601f8301169050919050565b7f537472696e67733a20686578206c656e67746820696e73756666696369656e74600082015250565b7f6e6f7420656e6f756768205745544820746f2072657061790000000000000000600082015250565b7f6d75737420686176652061646d696e20726f6c65000000000000000000000000600082015250565b7f416363657373436f6e74726f6c3a206163636f756e7420000000000000000000600082015250565b7f43616e6e6f7420706179206261636b206d6f7265207468616e20796f75206f7760008201527f6500000000000000000000000000000000000000000000000000000000000000602082015250565b7f427579657220686173206d696e756d756d203330206461797320746f2072657060008201527f6179000000000000000000000000000000000000000000000000000000000000602082015250565b7f206973206d697373696e6720726f6c6520000000000000000000000000000000600082015250565b7f416363657373436f6e74726f6c3a2063616e206f6e6c792072656e6f756e636560008201527f20726f6c657320666f722073656c660000000000000000000000000000000000602082015250565b6135b88161326b565b81146135c357600080fd5b50565b6135cf8161327d565b81146135da57600080fd5b50565b6135e681613289565b81146135f157600080fd5b50565b6135fd81613293565b811461360857600080fd5b50565b613614816132df565b811461361f57600080fd5b5056fea26469706673582212203b83acd92054302c17ebabd7e17a241380d62564ebc8e5bfecb457709764146464736f6c63430008010033",
  "linkReferences": {},
  "deployedLinkReferences": {}
}